{
  "contractName": "ZimCollectables",
  "abi": [
    {
      "inputs": [],
      "stateMutability": "nonpayable",
      "type": "constructor"
    },
    {
      "anonymous": false,
      "inputs": [
        {
          "indexed": true,
          "internalType": "address",
          "name": "owner",
          "type": "address"
        },
        {
          "indexed": true,
          "internalType": "address",
          "name": "approved",
          "type": "address"
        },
        {
          "indexed": true,
          "internalType": "uint256",
          "name": "tokenId",
          "type": "uint256"
        }
      ],
      "name": "Approval",
      "type": "event"
    },
    {
      "anonymous": false,
      "inputs": [
        {
          "indexed": true,
          "internalType": "address",
          "name": "owner",
          "type": "address"
        },
        {
          "indexed": true,
          "internalType": "address",
          "name": "operator",
          "type": "address"
        },
        {
          "indexed": false,
          "internalType": "bool",
          "name": "approved",
          "type": "bool"
        }
      ],
      "name": "ApprovalForAll",
      "type": "event"
    },
    {
      "anonymous": false,
      "inputs": [
        {
          "indexed": true,
          "internalType": "address",
          "name": "previousOwner",
          "type": "address"
        },
        {
          "indexed": true,
          "internalType": "address",
          "name": "newOwner",
          "type": "address"
        }
      ],
      "name": "OwnershipTransferred",
      "type": "event"
    },
    {
      "anonymous": false,
      "inputs": [
        {
          "indexed": true,
          "internalType": "address",
          "name": "from",
          "type": "address"
        },
        {
          "indexed": true,
          "internalType": "address",
          "name": "to",
          "type": "address"
        },
        {
          "indexed": true,
          "internalType": "uint256",
          "name": "tokenId",
          "type": "uint256"
        }
      ],
      "name": "Transfer",
      "type": "event"
    },
    {
      "inputs": [
        {
          "internalType": "address",
          "name": "to",
          "type": "address"
        },
        {
          "internalType": "uint256",
          "name": "tokenId",
          "type": "uint256"
        }
      ],
      "name": "approve",
      "outputs": [],
      "stateMutability": "nonpayable",
      "type": "function"
    },
    {
      "inputs": [
        {
          "internalType": "address",
          "name": "owner",
          "type": "address"
        }
      ],
      "name": "balanceOf",
      "outputs": [
        {
          "internalType": "uint256",
          "name": "",
          "type": "uint256"
        }
      ],
      "stateMutability": "view",
      "type": "function",
      "constant": true
    },
    {
      "inputs": [
        {
          "internalType": "uint256",
          "name": "tokenId",
          "type": "uint256"
        }
      ],
      "name": "getApproved",
      "outputs": [
        {
          "internalType": "address",
          "name": "",
          "type": "address"
        }
      ],
      "stateMutability": "view",
      "type": "function",
      "constant": true
    },
    {
      "inputs": [
        {
          "internalType": "address",
          "name": "owner",
          "type": "address"
        },
        {
          "internalType": "address",
          "name": "operator",
          "type": "address"
        }
      ],
      "name": "isApprovedForAll",
      "outputs": [
        {
          "internalType": "bool",
          "name": "",
          "type": "bool"
        }
      ],
      "stateMutability": "view",
      "type": "function",
      "constant": true
    },
    {
      "inputs": [],
      "name": "name",
      "outputs": [
        {
          "internalType": "string",
          "name": "",
          "type": "string"
        }
      ],
      "stateMutability": "view",
      "type": "function",
      "constant": true
    },
    {
      "inputs": [],
      "name": "owner",
      "outputs": [
        {
          "internalType": "address",
          "name": "",
          "type": "address"
        }
      ],
      "stateMutability": "view",
      "type": "function",
      "constant": true
    },
    {
      "inputs": [
        {
          "internalType": "uint256",
          "name": "tokenId",
          "type": "uint256"
        }
      ],
      "name": "ownerOf",
      "outputs": [
        {
          "internalType": "address",
          "name": "",
          "type": "address"
        }
      ],
      "stateMutability": "view",
      "type": "function",
      "constant": true
    },
    {
      "inputs": [],
      "name": "renounceOwnership",
      "outputs": [],
      "stateMutability": "nonpayable",
      "type": "function"
    },
    {
      "inputs": [
        {
          "internalType": "address",
          "name": "from",
          "type": "address"
        },
        {
          "internalType": "address",
          "name": "to",
          "type": "address"
        },
        {
          "internalType": "uint256",
          "name": "tokenId",
          "type": "uint256"
        }
      ],
      "name": "safeTransferFrom",
      "outputs": [],
      "stateMutability": "nonpayable",
      "type": "function"
    },
    {
      "inputs": [
        {
          "internalType": "address",
          "name": "from",
          "type": "address"
        },
        {
          "internalType": "address",
          "name": "to",
          "type": "address"
        },
        {
          "internalType": "uint256",
          "name": "tokenId",
          "type": "uint256"
        },
        {
          "internalType": "bytes",
          "name": "_data",
          "type": "bytes"
        }
      ],
      "name": "safeTransferFrom",
      "outputs": [],
      "stateMutability": "nonpayable",
      "type": "function"
    },
    {
      "inputs": [
        {
          "internalType": "address",
          "name": "operator",
          "type": "address"
        },
        {
          "internalType": "bool",
          "name": "approved",
          "type": "bool"
        }
      ],
      "name": "setApprovalForAll",
      "outputs": [],
      "stateMutability": "nonpayable",
      "type": "function"
    },
    {
      "inputs": [
        {
          "internalType": "bytes4",
          "name": "interfaceId",
          "type": "bytes4"
        }
      ],
      "name": "supportsInterface",
      "outputs": [
        {
          "internalType": "bool",
          "name": "",
          "type": "bool"
        }
      ],
      "stateMutability": "view",
      "type": "function",
      "constant": true
    },
    {
      "inputs": [],
      "name": "symbol",
      "outputs": [
        {
          "internalType": "string",
          "name": "",
          "type": "string"
        }
      ],
      "stateMutability": "view",
      "type": "function",
      "constant": true
    },
    {
      "inputs": [
        {
          "internalType": "address",
          "name": "from",
          "type": "address"
        },
        {
          "internalType": "address",
          "name": "to",
          "type": "address"
        },
        {
          "internalType": "uint256",
          "name": "tokenId",
          "type": "uint256"
        }
      ],
      "name": "transferFrom",
      "outputs": [],
      "stateMutability": "nonpayable",
      "type": "function"
    },
    {
      "inputs": [
        {
          "internalType": "address",
          "name": "newOwner",
          "type": "address"
        }
      ],
      "name": "transferOwnership",
      "outputs": [],
      "stateMutability": "nonpayable",
      "type": "function"
    },
    {
      "inputs": [
        {
          "internalType": "address",
          "name": "to",
          "type": "address"
        },
        {
          "internalType": "string",
          "name": "uri",
          "type": "string"
        }
      ],
      "name": "mintToken",
      "outputs": [],
      "stateMutability": "nonpayable",
      "type": "function"
    },
    {
      "inputs": [
        {
          "internalType": "uint256",
          "name": "tokenId",
          "type": "uint256"
        }
      ],
      "name": "tokenURI",
      "outputs": [
        {
          "internalType": "string",
          "name": "",
          "type": "string"
        }
      ],
      "stateMutability": "view",
      "type": "function",
      "constant": true
    }
  ],
  "bytecode": "0x60806040523480156200001157600080fd5b506040518060400160405280600f81526020017f5a696d436f6c6c65637461626c657300000000000000000000000000000000008152506040518060400160405280600481526020017f5a434f4c00000000000000000000000000000000000000000000000000000000815250816000908051906020019062000096929190620001a6565b508060019080519060200190620000af929190620001a6565b505050620000d2620000c6620000d860201b60201c565b620000e060201b60201c565b620002bb565b600033905090565b6000600760009054906101000a900473ffffffffffffffffffffffffffffffffffffffff16905081600760006101000a81548173ffffffffffffffffffffffffffffffffffffffff021916908373ffffffffffffffffffffffffffffffffffffffff1602179055508173ffffffffffffffffffffffffffffffffffffffff168173ffffffffffffffffffffffffffffffffffffffff167f8be0079c531659141344cd1fd0a4f28419497f9722a3daafe3b4186f6b6457e060405160405180910390a35050565b828054620001b49062000285565b90600052602060002090601f016020900481019282620001d8576000855562000224565b82601f10620001f357805160ff191683800117855562000224565b8280016001018555821562000224579182015b828111156200022357825182559160200191906001019062000206565b5b50905062000233919062000237565b5090565b5b808211156200025257600081600090555060010162000238565b5090565b7f4e487b7100000000000000000000000000000000000000000000000000000000600052602260045260246000fd5b600060028204905060018216806200029e57607f821691505b60208210811415620002b557620002b462000256565b5b50919050565b612fd980620002cb6000396000f3fe608060405234801561001057600080fd5b506004361061010b5760003560e01c806370a08231116100a2578063a22cb46511610071578063a22cb465146102a4578063b88d4fde146102c0578063c87b56dd146102dc578063e985e9c51461030c578063f2fde38b1461033c5761010b565b806370a082311461022e578063715018a61461025e5780638da5cb5b1461026857806395d89b41146102865761010b565b806323b872dd116100de57806323b872dd146101aa5780633d02d0c9146101c657806342842e0e146101e25780636352211e146101fe5761010b565b806301ffc9a71461011057806306fdde0314610140578063081812fc1461015e578063095ea7b31461018e575b600080fd5b61012a60048036038101906101259190611c3d565b610358565b6040516101379190611c85565b60405180910390f35b61014861043a565b6040516101559190611d39565b60405180910390f35b61017860048036038101906101739190611d91565b6104cc565b6040516101859190611dff565b60405180910390f35b6101a860048036038101906101a39190611e46565b610551565b005b6101c460048036038101906101bf9190611e86565b610669565b005b6101e060048036038101906101db919061200e565b6106c9565b005b6101fc60048036038101906101f79190611e86565b6106fa565b005b61021860048036038101906102139190611d91565b61071a565b6040516102259190611dff565b60405180910390f35b6102486004803603810190610243919061206a565b6107cc565b60405161025591906120a6565b60405180910390f35b610266610884565b005b61027061090c565b60405161027d9190611dff565b60405180910390f35b61028e610936565b60405161029b9190611d39565b60405180910390f35b6102be60048036038101906102b991906120ed565b6109c8565b005b6102da60048036038101906102d591906121ce565b6109de565b005b6102f660048036038101906102f19190611d91565b610a40565b6040516103039190611d39565b60405180910390f35b61032660048036038101906103219190612251565b610a52565b6040516103339190611c85565b60405180910390f35b6103566004803603810190610351919061206a565b610ae6565b005b60007f80ac58cd000000000000000000000000000000000000000000000000000000007bffffffffffffffffffffffffffffffffffffffffffffffffffffffff1916827bffffffffffffffffffffffffffffffffffffffffffffffffffffffff1916148061042357507f5b5e139f000000000000000000000000000000000000000000000000000000007bffffffffffffffffffffffffffffffffffffffffffffffffffffffff1916827bffffffffffffffffffffffffffffffffffffffffffffffffffffffff1916145b80610433575061043282610bde565b5b9050919050565b606060008054610449906122c0565b80601f0160208091040260200160405190810160405280929190818152602001828054610475906122c0565b80156104c25780601f10610497576101008083540402835291602001916104c2565b820191906000526020600020905b8154815290600101906020018083116104a557829003601f168201915b5050505050905090565b60006104d782610c48565b610516576040517f08c379a000000000000000000000000000000000000000000000000000000000815260040161050d90612364565b60405180910390fd5b6004600083815260200190815260200160002060009054906101000a900473ffffffffffffffffffffffffffffffffffffffff169050919050565b600061055c8261071a565b90508073ffffffffffffffffffffffffffffffffffffffff168373ffffffffffffffffffffffffffffffffffffffff1614156105cd576040517f08c379a00000000000000000000000000000000000000000000000000000000081526004016105c4906123f6565b60405180910390fd5b8073ffffffffffffffffffffffffffffffffffffffff166105ec610cb4565b73ffffffffffffffffffffffffffffffffffffffff16148061061b575061061a81610615610cb4565b610a52565b5b61065a576040517f08c379a000000000000000000000000000000000000000000000000000000000815260040161065190612488565b60405180910390fd5b6106648383610cbc565b505050565b61067a610674610cb4565b82610d75565b6106b9576040517f08c379a00000000000000000000000000000000000000000000000000000000081526004016106b09061251a565b60405180910390fd5b6106c4838383610e53565b505050565b60006106d560086110af565b90506106e160086110bd565b6106eb83826110d3565b6106f581836110f1565b505050565b610715838383604051806020016040528060008152506109de565b505050565b6000806002600084815260200190815260200160002060009054906101000a900473ffffffffffffffffffffffffffffffffffffffff169050600073ffffffffffffffffffffffffffffffffffffffff168173ffffffffffffffffffffffffffffffffffffffff1614156107c3576040517f08c379a00000000000000000000000000000000000000000000000000000000081526004016107ba906125ac565b60405180910390fd5b80915050919050565b60008073ffffffffffffffffffffffffffffffffffffffff168273ffffffffffffffffffffffffffffffffffffffff16141561083d576040517f08c379a00000000000000000000000000000000000000000000000000000000081526004016108349061263e565b60405180910390fd5b600360008373ffffffffffffffffffffffffffffffffffffffff1673ffffffffffffffffffffffffffffffffffffffff168152602001908152602001600020549050919050565b61088c610cb4565b73ffffffffffffffffffffffffffffffffffffffff166108aa61090c565b73ffffffffffffffffffffffffffffffffffffffff1614610900576040517f08c379a00000000000000000000000000000000000000000000000000000000081526004016108f7906126aa565b60405180910390fd5b61090a6000611165565b565b6000600760009054906101000a900473ffffffffffffffffffffffffffffffffffffffff16905090565b606060018054610945906122c0565b80601f0160208091040260200160405190810160405280929190818152602001828054610971906122c0565b80156109be5780601f10610993576101008083540402835291602001916109be565b820191906000526020600020905b8154815290600101906020018083116109a157829003601f168201915b5050505050905090565b6109da6109d3610cb4565b838361122b565b5050565b6109ef6109e9610cb4565b83610d75565b610a2e576040517f08c379a0000000000000000000000000000000000000000000000000000000008152600401610a259061251a565b60405180910390fd5b610a3a84848484611398565b50505050565b6060610a4b826113f4565b9050919050565b6000600560008473ffffffffffffffffffffffffffffffffffffffff1673ffffffffffffffffffffffffffffffffffffffff16815260200190815260200160002060008373ffffffffffffffffffffffffffffffffffffffff1673ffffffffffffffffffffffffffffffffffffffff16815260200190815260200160002060009054906101000a900460ff16905092915050565b610aee610cb4565b73ffffffffffffffffffffffffffffffffffffffff16610b0c61090c565b73ffffffffffffffffffffffffffffffffffffffff1614610b62576040517f08c379a0000000000000000000000000000000000000000000000000000000008152600401610b59906126aa565b60405180910390fd5b600073ffffffffffffffffffffffffffffffffffffffff168173ffffffffffffffffffffffffffffffffffffffff161415610bd2576040517f08c379a0000000000000000000000000000000000000000000000000000000008152600401610bc99061273c565b60405180910390fd5b610bdb81611165565b50565b60007f01ffc9a7000000000000000000000000000000000000000000000000000000007bffffffffffffffffffffffffffffffffffffffffffffffffffffffff1916827bffffffffffffffffffffffffffffffffffffffffffffffffffffffff1916149050919050565b60008073ffffffffffffffffffffffffffffffffffffffff166002600084815260200190815260200160002060009054906101000a900473ffffffffffffffffffffffffffffffffffffffff1673ffffffffffffffffffffffffffffffffffffffff1614159050919050565b600033905090565b816004600083815260200190815260200160002060006101000a81548173ffffffffffffffffffffffffffffffffffffffff021916908373ffffffffffffffffffffffffffffffffffffffff160217905550808273ffffffffffffffffffffffffffffffffffffffff16610d2f8361071a565b73ffffffffffffffffffffffffffffffffffffffff167f8c5be1e5ebec7d5bd14f71427d1e84f3dd0314c0f7b2291e5b200ac8c7c3b92560405160405180910390a45050565b6000610d8082610c48565b610dbf576040517f08c379a0000000000000000000000000000000000000000000000000000000008152600401610db6906127ce565b60405180910390fd5b6000610dca8361071a565b90508073ffffffffffffffffffffffffffffffffffffffff168473ffffffffffffffffffffffffffffffffffffffff161480610e3957508373ffffffffffffffffffffffffffffffffffffffff16610e21846104cc565b73ffffffffffffffffffffffffffffffffffffffff16145b80610e4a5750610e498185610a52565b5b91505092915050565b8273ffffffffffffffffffffffffffffffffffffffff16610e738261071a565b73ffffffffffffffffffffffffffffffffffffffff1614610ec9576040517f08c379a0000000000000000000000000000000000000000000000000000000008152600401610ec090612860565b60405180910390fd5b600073ffffffffffffffffffffffffffffffffffffffff168273ffffffffffffffffffffffffffffffffffffffff161415610f39576040517f08c379a0000000000000000000000000000000000000000000000000000000008152600401610f30906128f2565b60405180910390fd5b610f44838383611546565b610f4f600082610cbc565b6001600360008573ffffffffffffffffffffffffffffffffffffffff1673ffffffffffffffffffffffffffffffffffffffff1681526020019081526020016000206000828254610f9f9190612941565b925050819055506001600360008473ffffffffffffffffffffffffffffffffffffffff1673ffffffffffffffffffffffffffffffffffffffff1681526020019081526020016000206000828254610ff69190612975565b92505081905550816002600083815260200190815260200160002060006101000a81548173ffffffffffffffffffffffffffffffffffffffff021916908373ffffffffffffffffffffffffffffffffffffffff160217905550808273ffffffffffffffffffffffffffffffffffffffff168473ffffffffffffffffffffffffffffffffffffffff167fddf252ad1be2c89b69c2b068fc378daa952ba7f163c4a11628f55a4df523b3ef60405160405180910390a4505050565b600081600001549050919050565b6001816000016000828254019250508190555050565b6110ed82826040518060200160405280600081525061154b565b5050565b6110fa82610c48565b611139576040517f08c379a000000000000000000000000000000000000000000000000000000000815260040161113090612a3d565b60405180910390fd5b80600660008481526020019081526020016000209080519060200190611160929190611b2e565b505050565b6000600760009054906101000a900473ffffffffffffffffffffffffffffffffffffffff16905081600760006101000a81548173ffffffffffffffffffffffffffffffffffffffff021916908373ffffffffffffffffffffffffffffffffffffffff1602179055508173ffffffffffffffffffffffffffffffffffffffff168173ffffffffffffffffffffffffffffffffffffffff167f8be0079c531659141344cd1fd0a4f28419497f9722a3daafe3b4186f6b6457e060405160405180910390a35050565b8173ffffffffffffffffffffffffffffffffffffffff168373ffffffffffffffffffffffffffffffffffffffff16141561129a576040517f08c379a000000000000000000000000000000000000000000000000000000000815260040161129190612aa9565b60405180910390fd5b80600560008573ffffffffffffffffffffffffffffffffffffffff1673ffffffffffffffffffffffffffffffffffffffff16815260200190815260200160002060008473ffffffffffffffffffffffffffffffffffffffff1673ffffffffffffffffffffffffffffffffffffffff16815260200190815260200160002060006101000a81548160ff0219169083151502179055508173ffffffffffffffffffffffffffffffffffffffff168373ffffffffffffffffffffffffffffffffffffffff167f17307eab39ab6107e8899845ad3d59bd9653f200f220920489ca2b5937696c318360405161138b9190611c85565b60405180910390a3505050565b6113a3848484610e53565b6113af848484846115a6565b6113ee576040517f08c379a00000000000000000000000000000000000000000000000000000000081526004016113e590612b3b565b60405180910390fd5b50505050565b60606113ff82610c48565b61143e576040517f08c379a000000000000000000000000000000000000000000000000000000000815260040161143590612bcd565b60405180910390fd5b600060066000848152602001908152602001600020805461145e906122c0565b80601f016020809104026020016040519081016040528092919081815260200182805461148a906122c0565b80156114d75780601f106114ac576101008083540402835291602001916114d7565b820191906000526020600020905b8154815290600101906020018083116114ba57829003601f168201915b5050505050905060006114e861172e565b90506000815114156114fe578192505050611541565b60008251111561153357808260405160200161151b929190612c29565b60405160208183030381529060405292505050611541565b61153c84611745565b925050505b919050565b505050565b61155583836117ec565b61156260008484846115a6565b6115a1576040517f08c379a000000000000000000000000000000000000000000000000000000000815260040161159890612b3b565b60405180910390fd5b505050565b60006115c78473ffffffffffffffffffffffffffffffffffffffff166119ba565b15611721578373ffffffffffffffffffffffffffffffffffffffff1663150b7a026115f0610cb4565b8786866040518563ffffffff1660e01b81526004016116129493929190612ca2565b6020604051808303816000875af192505050801561164e57506040513d601f19601f8201168201806040525081019061164b9190612d03565b60015b6116d1573d806000811461167e576040519150601f19603f3d011682016040523d82523d6000602084013e611683565b606091505b506000815114156116c9576040517f08c379a00000000000000000000000000000000000000000000000000000000081526004016116c090612b3b565b60405180910390fd5b805181602001fd5b63150b7a0260e01b7bffffffffffffffffffffffffffffffffffffffffffffffffffffffff1916817bffffffffffffffffffffffffffffffffffffffffffffffffffffffff191614915050611726565b600190505b949350505050565b606060405180602001604052806000815250905090565b606061175082610c48565b61178f576040517f08c379a000000000000000000000000000000000000000000000000000000000815260040161178690612da2565b60405180910390fd5b600061179961172e565b905060008151116117b957604051806020016040528060008152506117e4565b806117c3846119cd565b6040516020016117d4929190612c29565b6040516020818303038152906040525b915050919050565b600073ffffffffffffffffffffffffffffffffffffffff168273ffffffffffffffffffffffffffffffffffffffff16141561185c576040517f08c379a000000000000000000000000000000000000000000000000000000000815260040161185390612e0e565b60405180910390fd5b61186581610c48565b156118a5576040517f08c379a000000000000000000000000000000000000000000000000000000000815260040161189c90612e7a565b60405180910390fd5b6118b160008383611546565b6001600360008473ffffffffffffffffffffffffffffffffffffffff1673ffffffffffffffffffffffffffffffffffffffff16815260200190815260200160002060008282546119019190612975565b92505081905550816002600083815260200190815260200160002060006101000a81548173ffffffffffffffffffffffffffffffffffffffff021916908373ffffffffffffffffffffffffffffffffffffffff160217905550808273ffffffffffffffffffffffffffffffffffffffff16600073ffffffffffffffffffffffffffffffffffffffff167fddf252ad1be2c89b69c2b068fc378daa952ba7f163c4a11628f55a4df523b3ef60405160405180910390a45050565b600080823b905060008111915050919050565b60606000821415611a15576040518060400160405280600181526020017f30000000000000000000000000000000000000000000000000000000000000008152509050611b29565b600082905060005b60008214611a47578080611a3090612e9a565b915050600a82611a409190612f12565b9150611a1d565b60008167ffffffffffffffff811115611a6357611a62611ee3565b5b6040519080825280601f01601f191660200182016040528015611a955781602001600182028036833780820191505090505b5090505b60008514611b2257600182611aae9190612941565b9150600a85611abd9190612f43565b6030611ac99190612975565b60f81b818381518110611adf57611ade612f74565b5b60200101907effffffffffffffffffffffffffffffffffffffffffffffffffffffffffffff1916908160001a905350600a85611b1b9190612f12565b9450611a99565b8093505050505b919050565b828054611b3a906122c0565b90600052602060002090601f016020900481019282611b5c5760008555611ba3565b82601f10611b7557805160ff1916838001178555611ba3565b82800160010185558215611ba3579182015b82811115611ba2578251825591602001919060010190611b87565b5b509050611bb09190611bb4565b5090565b5b80821115611bcd576000816000905550600101611bb5565b5090565b6000604051905090565b600080fd5b600080fd5b60007fffffffff0000000000000000000000000000000000000000000000000000000082169050919050565b611c1a81611be5565b8114611c2557600080fd5b50565b600081359050611c3781611c11565b92915050565b600060208284031215611c5357611c52611bdb565b5b6000611c6184828501611c28565b91505092915050565b60008115159050919050565b611c7f81611c6a565b82525050565b6000602082019050611c9a6000830184611c76565b92915050565b600081519050919050565b600082825260208201905092915050565b60005b83811015611cda578082015181840152602081019050611cbf565b83811115611ce9576000848401525b50505050565b6000601f19601f8301169050919050565b6000611d0b82611ca0565b611d158185611cab565b9350611d25818560208601611cbc565b611d2e81611cef565b840191505092915050565b60006020820190508181036000830152611d538184611d00565b905092915050565b6000819050919050565b611d6e81611d5b565b8114611d7957600080fd5b50565b600081359050611d8b81611d65565b92915050565b600060208284031215611da757611da6611bdb565b5b6000611db584828501611d7c565b91505092915050565b600073ffffffffffffffffffffffffffffffffffffffff82169050919050565b6000611de982611dbe565b9050919050565b611df981611dde565b82525050565b6000602082019050611e146000830184611df0565b92915050565b611e2381611dde565b8114611e2e57600080fd5b50565b600081359050611e4081611e1a565b92915050565b60008060408385031215611e5d57611e5c611bdb565b5b6000611e6b85828601611e31565b9250506020611e7c85828601611d7c565b9150509250929050565b600080600060608486031215611e9f57611e9e611bdb565b5b6000611ead86828701611e31565b9350506020611ebe86828701611e31565b9250506040611ecf86828701611d7c565b9150509250925092565b600080fd5b600080fd5b7f4e487b7100000000000000000000000000000000000000000000000000000000600052604160045260246000fd5b611f1b82611cef565b810181811067ffffffffffffffff82111715611f3a57611f39611ee3565b5b80604052505050565b6000611f4d611bd1565b9050611f598282611f12565b919050565b600067ffffffffffffffff821115611f7957611f78611ee3565b5b611f8282611cef565b9050602081019050919050565b82818337600083830152505050565b6000611fb1611fac84611f5e565b611f43565b905082815260208101848484011115611fcd57611fcc611ede565b5b611fd8848285611f8f565b509392505050565b600082601f830112611ff557611ff4611ed9565b5b8135612005848260208601611f9e565b91505092915050565b6000806040838503121561202557612024611bdb565b5b600061203385828601611e31565b925050602083013567ffffffffffffffff81111561205457612053611be0565b5b61206085828601611fe0565b9150509250929050565b6000602082840312156120805761207f611bdb565b5b600061208e84828501611e31565b91505092915050565b6120a081611d5b565b82525050565b60006020820190506120bb6000830184612097565b92915050565b6120ca81611c6a565b81146120d557600080fd5b50565b6000813590506120e7816120c1565b92915050565b6000806040838503121561210457612103611bdb565b5b600061211285828601611e31565b9250506020612123858286016120d8565b9150509250929050565b600067ffffffffffffffff82111561214857612147611ee3565b5b61215182611cef565b9050602081019050919050565b600061217161216c8461212d565b611f43565b90508281526020810184848401111561218d5761218c611ede565b5b612198848285611f8f565b509392505050565b600082601f8301126121b5576121b4611ed9565b5b81356121c584826020860161215e565b91505092915050565b600080600080608085870312156121e8576121e7611bdb565b5b60006121f687828801611e31565b945050602061220787828801611e31565b935050604061221887828801611d7c565b925050606085013567ffffffffffffffff81111561223957612238611be0565b5b612245878288016121a0565b91505092959194509250565b6000806040838503121561226857612267611bdb565b5b600061227685828601611e31565b925050602061228785828601611e31565b9150509250929050565b7f4e487b7100000000000000000000000000000000000000000000000000000000600052602260045260246000fd5b600060028204905060018216806122d857607f821691505b602082108114156122ec576122eb612291565b5b50919050565b7f4552433732313a20617070726f76656420717565727920666f72206e6f6e657860008201527f697374656e7420746f6b656e0000000000000000000000000000000000000000602082015250565b600061234e602c83611cab565b9150612359826122f2565b604082019050919050565b6000602082019050818103600083015261237d81612341565b9050919050565b7f4552433732313a20617070726f76616c20746f2063757272656e74206f776e6560008201527f7200000000000000000000000000000000000000000000000000000000000000602082015250565b60006123e0602183611cab565b91506123eb82612384565b604082019050919050565b6000602082019050818103600083015261240f816123d3565b9050919050565b7f4552433732313a20617070726f76652063616c6c6572206973206e6f74206f7760008201527f6e6572206e6f7220617070726f76656420666f7220616c6c0000000000000000602082015250565b6000612472603883611cab565b915061247d82612416565b604082019050919050565b600060208201905081810360008301526124a181612465565b9050919050565b7f4552433732313a207472616e736665722063616c6c6572206973206e6f74206f60008201527f776e6572206e6f7220617070726f766564000000000000000000000000000000602082015250565b6000612504603183611cab565b915061250f826124a8565b604082019050919050565b60006020820190508181036000830152612533816124f7565b9050919050565b7f4552433732313a206f776e657220717565727920666f72206e6f6e657869737460008201527f656e7420746f6b656e0000000000000000000000000000000000000000000000602082015250565b6000612596602983611cab565b91506125a18261253a565b604082019050919050565b600060208201905081810360008301526125c581612589565b9050919050565b7f4552433732313a2062616c616e636520717565727920666f7220746865207a6560008201527f726f206164647265737300000000000000000000000000000000000000000000602082015250565b6000612628602a83611cab565b9150612633826125cc565b604082019050919050565b600060208201905081810360008301526126578161261b565b9050919050565b7f4f776e61626c653a2063616c6c6572206973206e6f7420746865206f776e6572600082015250565b6000612694602083611cab565b915061269f8261265e565b602082019050919050565b600060208201905081810360008301526126c381612687565b9050919050565b7f4f776e61626c653a206e6577206f776e657220697320746865207a65726f206160008201527f6464726573730000000000000000000000000000000000000000000000000000602082015250565b6000612726602683611cab565b9150612731826126ca565b604082019050919050565b6000602082019050818103600083015261275581612719565b9050919050565b7f4552433732313a206f70657261746f7220717565727920666f72206e6f6e657860008201527f697374656e7420746f6b656e0000000000000000000000000000000000000000602082015250565b60006127b8602c83611cab565b91506127c38261275c565b604082019050919050565b600060208201905081810360008301526127e7816127ab565b9050919050565b7f4552433732313a207472616e73666572206f6620746f6b656e2074686174206960008201527f73206e6f74206f776e0000000000000000000000000000000000000000000000602082015250565b600061284a602983611cab565b9150612855826127ee565b604082019050919050565b600060208201905081810360008301526128798161283d565b9050919050565b7f4552433732313a207472616e7366657220746f20746865207a65726f2061646460008201527f7265737300000000000000000000000000000000000000000000000000000000602082015250565b60006128dc602483611cab565b91506128e782612880565b604082019050919050565b6000602082019050818103600083015261290b816128cf565b9050919050565b7f4e487b7100000000000000000000000000000000000000000000000000000000600052601160045260246000fd5b600061294c82611d5b565b915061295783611d5b565b92508282101561296a57612969612912565b5b828203905092915050565b600061298082611d5b565b915061298b83611d5b565b9250827fffffffffffffffffffffffffffffffffffffffffffffffffffffffffffffffff038211156129c0576129bf612912565b5b828201905092915050565b7f45524337323155524953746f726167653a2055524920736574206f66206e6f6e60008201527f6578697374656e7420746f6b656e000000000000000000000000000000000000602082015250565b6000612a27602e83611cab565b9150612a32826129cb565b604082019050919050565b60006020820190508181036000830152612a5681612a1a565b9050919050565b7f4552433732313a20617070726f766520746f2063616c6c657200000000000000600082015250565b6000612a93601983611cab565b9150612a9e82612a5d565b602082019050919050565b60006020820190508181036000830152612ac281612a86565b9050919050565b7f4552433732313a207472616e7366657220746f206e6f6e20455243373231526560008201527f63656976657220696d706c656d656e7465720000000000000000000000000000602082015250565b6000612b25603283611cab565b9150612b3082612ac9565b604082019050919050565b60006020820190508181036000830152612b5481612b18565b9050919050565b7f45524337323155524953746f726167653a2055524920717565727920666f722060008201527f6e6f6e6578697374656e7420746f6b656e000000000000000000000000000000602082015250565b6000612bb7603183611cab565b9150612bc282612b5b565b604082019050919050565b60006020820190508181036000830152612be681612baa565b9050919050565b600081905092915050565b6000612c0382611ca0565b612c0d8185612bed565b9350612c1d818560208601611cbc565b80840191505092915050565b6000612c358285612bf8565b9150612c418284612bf8565b91508190509392505050565b600081519050919050565b600082825260208201905092915050565b6000612c7482612c4d565b612c7e8185612c58565b9350612c8e818560208601611cbc565b612c9781611cef565b840191505092915050565b6000608082019050612cb76000830187611df0565b612cc46020830186611df0565b612cd16040830185612097565b8181036060830152612ce38184612c69565b905095945050505050565b600081519050612cfd81611c11565b92915050565b600060208284031215612d1957612d18611bdb565b5b6000612d2784828501612cee565b91505092915050565b7f4552433732314d657461646174613a2055524920717565727920666f72206e6f60008201527f6e6578697374656e7420746f6b656e0000000000000000000000000000000000602082015250565b6000612d8c602f83611cab565b9150612d9782612d30565b604082019050919050565b60006020820190508181036000830152612dbb81612d7f565b9050919050565b7f4552433732313a206d696e7420746f20746865207a65726f2061646472657373600082015250565b6000612df8602083611cab565b9150612e0382612dc2565b602082019050919050565b60006020820190508181036000830152612e2781612deb565b9050919050565b7f4552433732313a20746f6b656e20616c7265616479206d696e74656400000000600082015250565b6000612e64601c83611cab565b9150612e6f82612e2e565b602082019050919050565b60006020820190508181036000830152612e9381612e57565b9050919050565b6000612ea582611d5b565b91507fffffffffffffffffffffffffffffffffffffffffffffffffffffffffffffffff821415612ed857612ed7612912565b5b600182019050919050565b7f4e487b7100000000000000000000000000000000000000000000000000000000600052601260045260246000fd5b6000612f1d82611d5b565b9150612f2883611d5b565b925082612f3857612f37612ee3565b5b828204905092915050565b6000612f4e82611d5b565b9150612f5983611d5b565b925082612f6957612f68612ee3565b5b828206905092915050565b7f4e487b7100000000000000000000000000000000000000000000000000000000600052603260045260246000fdfea26469706673582212208875fe973e2784239f475829320a0c292410346b7fd6652c3d7c41e0bcb3ea1f64736f6c634300080a0033",
  "immutableReferences": {},
  "source": "// SPDX-License-Identifier: MIT\npragma solidity >=0.8.10 <0.9.0;\n\nimport \"../../node_modules/@openzeppelin/contracts/token/ERC721/ERC721.sol\";\nimport \"../../node_modules/@openzeppelin/contracts/token/ERC721/extensions/ERC721URIStorage.sol\";\nimport \"../../node_modules/@openzeppelin/contracts/access/Ownable.sol\";\nimport \"../../node_modules/@openzeppelin/contracts/utils/Counters.sol\";\n\ncontract ZimCollectables is ERC721, ERC721URIStorage, Ownable {\n    using Counters for Counters.Counter;\n    Counters.Counter private _tokenIdCounter;\n    constructor() ERC721(\"ZimCollectables\", \"ZCOL\") {}\n    function mintToken(address to, string memory uri) public {\n        uint256 tokenId = _tokenIdCounter.current();\n        _tokenIdCounter.increment();\n        _safeMint(to, tokenId);\n        _setTokenURI(tokenId, uri);\n    }\n    function _burn(uint256 tokenId) internal override(ERC721, ERC721URIStorage) {\n        super._burn(tokenId);\n    }\n    function tokenURI(uint256 tokenId)\n        public\n        view\n        override(ERC721, ERC721URIStorage)\n        returns (string memory)\n    {\n        return super.tokenURI(tokenId);\n    }\n}\n\n\n\n//ayaan code from slack\n// contract ZimCollectables is ERC721URIStorage {\n// \tusing Counters for Counters.Counter;\n// \tCounters.Counter private _tokenIds;\n// \tconstructor() ERC721(\"ZimCollectables\", \"ZCOL\") {}\n\t\n//     struct Item {\n// \t\tuint256 id;\n// \t\taddress creator;\n// \t\tstring uri;\n// \t\t}\n\n// \tmapping (uint256 => Item) public Items;\n\n// \tfunction mintToken(string memory uri) public returns (uint256) {\n// \t\t\t_tokenIds.increment();\n// \t\t\tuint256 newItemId = _tokenIds.current();\n// \t\t\t_safeMint(msg.sender, newItemId);\n// \t\t\tItems[newItemId] = Item(newItemId, msg.sender,uri);\n// \t\t\treturn newItemId;\n// \t}\n// \tfunction tokenURI(uint256 tokenId) public view override returns (string memory){\n// \trequire(_exists(tokenId), \"ERC721Metadata: URI query for nonexistent token\");\n// \treturn Items[tokenId].uri;\n// \t}\n// }\n\n/*       NEW CONTRACT       */\n\n// import '@openzeppelin/contracts/token/ERC721/ERC721.sol';\n// import '@openzeppelin/contracts/token/ERC721/extensions/ERC721URIStorage.sol';\n// import '@openzeppelin/contracts/utils/Counters.sol';\n// import '@openzeppelin/contracts/access/Ownable.sol';\n\n// contract ZimCollectables is ERC721URIStorage {\n//   using Counters for Counters.Counter;\n//   Counters.Counter private _tokenIds;\n\n//   constructor() ERC721('ZimCollectables', 'ZCOL') {}\n\n//   function mintToken(address recipient, string memory tokenURI) public returns (uint256) {\n//     _tokenIds.increment();\n//     uint256 newItemId = _tokenIds.current();\n//     _safeMint(recipient, newItemId);\n//     _setTokenURI(newItemId, tokenURI);\n//     return newItemId;\n//   }\n// }\n/*       NEW CONTRACT       */\n\n// pragma solidity ^0.8.0;\n\n// import '@openzeppelin/contracts/token/ERC721/extensions/ERC721Enumerable.sol';\n// import '@openzeppelin/contracts/token/ERC20/IERC20.sol';\n// import '@openzeppelin/contracts/access/Ownable.sol';\n\n// contract CoinracerNFT is ERC721Enumerable, Ownable {\n//   uint256 public ZCOL;\n//uint256 private minBNB;\n//uint256 private minCRACE;\n//uint256 public mintSupply;\n//uint256 maxMintSupply = 5000;\n// mapping(uint256 => string) public _data;\n// mapping(address => uint256) private _mintAmount;\n\n//IERC20 crace;\n\n// constructor(IERC721 zcol)\n//   ERC721('ZimCollectables', 'ZCOL')\n//   //uint256 _minBNB,\n//   //uint256 _minCRACE\n// {\n//   ZCOL = 0;\n//   //crace = _crace;\n//   //minBNB = _minBNB;\n//   //minCRACE = _minCRACE;\n// }\n\n// function updateMinBNB(uint256 _minBNB) external onlyOwner {\n//   minBNB = _minBNB;\n// }\n\n// function updateMinCRACE(uint256 _minCRACE) external onlyOwner {\n//   minCRACE = _minCRACE;\n// }\n\n//function mint(\n//uint256 amount,\n//uint256 craceValue,\n//string[] memory data\n//) external payable {\n//require(amount > 0 && _mintAmount[msg.sender] + amount <= 5, 'NFT amount');\n//require(mintSupply + amount <= maxMintSupply, 'Mint Supply');\n//require(msg.value >= minBNB * amount, 'Under BNB limit');\n//require(craceValue >= minCRACE * amount, 'Under CRACE limit');\n\n// crace.transferFrom(msg.sender, address(this), craceValue);\n// _mintAmount[msg.sender] += amount;\n// mintSupply += amount;\n\n//   for (uint256 i = 0; i < amount; i = i + 1) {\n//     ZCOL = ZCOL + 1;\n//     _safeMint(msg.sender, ZCOL);\n//     _data[ZCOL] = data[i];\n//   }\n// }\n\n// function mintZCol(address addr, string memory data) public {\n//   ZCOL = ZCOL + 1;\n//   _safeMint(addr, ZCOL);\n//   _data[ZCOL] = data;\n// }\n\n// function mintByOwner(address addr, string memory data) external onlyOwner {\n//   ZCOL = ZCOL + 1;\n//   _safeMint(addr, ZCOL);\n//   _data[ZCOL] = data;\n// }\n\n// function tokenURI(uint256 tokenId) public view override returns (string memory) {\n//   require(_exists(tokenId), 'ERC721Metadata: URI query for nonexistent token');\n//   return _data[tokenId];\n// }\n// }\n",
  "sourcePath": "/Users/EmilyHPark_1/codeworks/Course/Week-10/zims/src/contracts/ZimCollectables.sol",
  "compiler": {
    "name": "solc",
    "version": "0.8.10+commit.fc410830.Emscripten.clang"
  },
  "schemaVersion": "3.4.3",
  "updatedAt": "2021-12-03T16:39:01.108Z",
  "networkType": "ethereum",
  "devdoc": {
    "kind": "dev",
    "methods": {
      "approve(address,uint256)": {
        "details": "See {IERC721-approve}."
      },
      "balanceOf(address)": {
        "details": "See {IERC721-balanceOf}."
      },
      "getApproved(uint256)": {
        "details": "See {IERC721-getApproved}."
      },
      "isApprovedForAll(address,address)": {
        "details": "See {IERC721-isApprovedForAll}."
      },
      "name()": {
        "details": "See {IERC721Metadata-name}."
      },
      "owner()": {
        "details": "Returns the address of the current owner."
      },
      "ownerOf(uint256)": {
        "details": "See {IERC721-ownerOf}."
      },
      "renounceOwnership()": {
        "details": "Leaves the contract without owner. It will not be possible to call `onlyOwner` functions anymore. Can only be called by the current owner. NOTE: Renouncing ownership will leave the contract without an owner, thereby removing any functionality that is only available to the owner."
      },
      "safeTransferFrom(address,address,uint256)": {
        "details": "See {IERC721-safeTransferFrom}."
      },
      "safeTransferFrom(address,address,uint256,bytes)": {
        "details": "See {IERC721-safeTransferFrom}."
      },
      "setApprovalForAll(address,bool)": {
        "details": "See {IERC721-setApprovalForAll}."
      },
      "supportsInterface(bytes4)": {
        "details": "See {IERC165-supportsInterface}."
      },
      "symbol()": {
        "details": "See {IERC721Metadata-symbol}."
      },
      "transferFrom(address,address,uint256)": {
        "details": "See {IERC721-transferFrom}."
      },
      "transferOwnership(address)": {
        "details": "Transfers ownership of the contract to a new account (`newOwner`). Can only be called by the current owner."
      }
    },
    "version": 1
  },
  "userdoc": {
    "kind": "user",
    "methods": {},
    "version": 1
  }
}